{
  "address": "0x874a5e96952CF3D34C669f70C4B3289a702693Fd",
  "abi": [
    {
      "inputs": [
        {
          "internalType": "address",
          "name": "initialOwner",
          "type": "address"
        }
      ],
      "stateMutability": "nonpayable",
      "type": "constructor"
    },
    {
      "inputs": [
        {
          "internalType": "address",
          "name": "sender",
          "type": "address"
        },
        {
          "internalType": "uint256",
          "name": "tokenId",
          "type": "uint256"
        },
        {
          "internalType": "address",
          "name": "owner",
          "type": "address"
        }
      ],
      "name": "ERC721IncorrectOwner",
      "type": "error"
    },
    {
      "inputs": [
        {
          "internalType": "address",
          "name": "operator",
          "type": "address"
        },
        {
          "internalType": "uint256",
          "name": "tokenId",
          "type": "uint256"
        }
      ],
      "name": "ERC721InsufficientApproval",
      "type": "error"
    },
    {
      "inputs": [
        {
          "internalType": "address",
          "name": "approver",
          "type": "address"
        }
      ],
      "name": "ERC721InvalidApprover",
      "type": "error"
    },
    {
      "inputs": [
        {
          "internalType": "address",
          "name": "operator",
          "type": "address"
        }
      ],
      "name": "ERC721InvalidOperator",
      "type": "error"
    },
    {
      "inputs": [
        {
          "internalType": "address",
          "name": "owner",
          "type": "address"
        }
      ],
      "name": "ERC721InvalidOwner",
      "type": "error"
    },
    {
      "inputs": [
        {
          "internalType": "address",
          "name": "receiver",
          "type": "address"
        }
      ],
      "name": "ERC721InvalidReceiver",
      "type": "error"
    },
    {
      "inputs": [
        {
          "internalType": "address",
          "name": "sender",
          "type": "address"
        }
      ],
      "name": "ERC721InvalidSender",
      "type": "error"
    },
    {
      "inputs": [
        {
          "internalType": "uint256",
          "name": "tokenId",
          "type": "uint256"
        }
      ],
      "name": "ERC721NonexistentToken",
      "type": "error"
    },
    {
      "inputs": [
        {
          "internalType": "address",
          "name": "owner",
          "type": "address"
        }
      ],
      "name": "OwnableInvalidOwner",
      "type": "error"
    },
    {
      "inputs": [
        {
          "internalType": "address",
          "name": "account",
          "type": "address"
        }
      ],
      "name": "OwnableUnauthorizedAccount",
      "type": "error"
    },
    {
      "anonymous": false,
      "inputs": [
        {
          "indexed": true,
          "internalType": "address",
          "name": "owner",
          "type": "address"
        },
        {
          "indexed": true,
          "internalType": "address",
          "name": "approved",
          "type": "address"
        },
        {
          "indexed": true,
          "internalType": "uint256",
          "name": "tokenId",
          "type": "uint256"
        }
      ],
      "name": "Approval",
      "type": "event"
    },
    {
      "anonymous": false,
      "inputs": [
        {
          "indexed": true,
          "internalType": "address",
          "name": "owner",
          "type": "address"
        },
        {
          "indexed": true,
          "internalType": "address",
          "name": "operator",
          "type": "address"
        },
        {
          "indexed": false,
          "internalType": "bool",
          "name": "approved",
          "type": "bool"
        }
      ],
      "name": "ApprovalForAll",
      "type": "event"
    },
    {
      "anonymous": false,
      "inputs": [
        {
          "indexed": true,
          "internalType": "address",
          "name": "user",
          "type": "address"
        },
        {
          "indexed": false,
          "internalType": "enum YourContract.ChoreType",
          "name": "choreType",
          "type": "uint8"
        }
      ],
      "name": "ChoreCompleted",
      "type": "event"
    },
    {
      "anonymous": false,
      "inputs": [
        {
          "indexed": true,
          "internalType": "address",
          "name": "user",
          "type": "address"
        },
        {
          "indexed": false,
          "internalType": "enum YourContract.ChoreType",
          "name": "choreType",
          "type": "uint8"
        },
        {
          "indexed": false,
          "internalType": "uint256",
          "name": "nftId",
          "type": "uint256"
        },
        {
          "indexed": false,
          "internalType": "uint256",
          "name": "deadline",
          "type": "uint256"
        }
      ],
      "name": "ChoreSelected",
      "type": "event"
    },
    {
      "anonymous": false,
      "inputs": [
        {
          "indexed": true,
          "internalType": "uint256",
          "name": "tokenId",
          "type": "uint256"
        }
      ],
      "name": "NFTBurned",
      "type": "event"
    },
    {
      "anonymous": false,
      "inputs": [
        {
          "indexed": true,
          "internalType": "uint256",
          "name": "tokenId",
          "type": "uint256"
        },
        {
          "indexed": true,
          "internalType": "address",
          "name": "to",
          "type": "address"
        },
        {
          "indexed": false,
          "internalType": "enum YourContract.NFTType",
          "name": "nftType",
          "type": "uint8"
        },
        {
          "indexed": false,
          "internalType": "enum YourContract.ChoreType",
          "name": "choreType",
          "type": "uint8"
        }
      ],
      "name": "NFTMinted",
      "type": "event"
    },
    {
      "anonymous": false,
      "inputs": [
        {
          "indexed": true,
          "internalType": "address",
          "name": "previousOwner",
          "type": "address"
        },
        {
          "indexed": true,
          "internalType": "address",
          "name": "newOwner",
          "type": "address"
        }
      ],
      "name": "OwnershipTransferred",
      "type": "event"
    },
    {
      "anonymous": false,
      "inputs": [
        {
          "indexed": true,
          "internalType": "address",
          "name": "user",
          "type": "address"
        },
        {
          "indexed": false,
          "internalType": "enum YourContract.ChoreType",
          "name": "choreType",
          "type": "uint8"
        },
        {
          "indexed": false,
          "internalType": "uint256",
          "name": "reward",
          "type": "uint256"
        },
        {
          "indexed": false,
          "internalType": "bool",
          "name": "lotteryWin",
          "type": "bool"
        },
        {
          "indexed": false,
          "internalType": "uint256",
          "name": "achievementNFT",
          "type": "uint256"
        }
      ],
      "name": "RewardClaimed",
      "type": "event"
    },
    {
      "anonymous": false,
      "inputs": [
        {
          "indexed": true,
          "internalType": "address",
          "name": "from",
          "type": "address"
        },
        {
          "indexed": true,
          "internalType": "address",
          "name": "to",
          "type": "address"
        },
        {
          "indexed": true,
          "internalType": "uint256",
          "name": "tokenId",
          "type": "uint256"
        }
      ],
      "name": "Transfer",
      "type": "event"
    },
    {
      "inputs": [
        {
          "internalType": "address",
          "name": "to",
          "type": "address"
        },
        {
          "internalType": "uint256",
          "name": "tokenId",
          "type": "uint256"
        }
      ],
      "name": "approve",
      "outputs": [],
      "stateMutability": "nonpayable",
      "type": "function"
    },
    {
      "inputs": [
        {
          "internalType": "address",
          "name": "owner",
          "type": "address"
        }
      ],
      "name": "balanceOf",
      "outputs": [
        {
          "internalType": "uint256",
          "name": "",
          "type": "uint256"
        }
      ],
      "stateMutability": "view",
      "type": "function"
    },
    {
      "inputs": [
        {
          "internalType": "enum YourContract.ChoreType",
          "name": "_choreType",
          "type": "uint8"
        }
      ],
      "name": "burnForReward",
      "outputs": [],
      "stateMutability": "payable",
      "type": "function"
    },
    {
      "inputs": [
        {
          "internalType": "enum YourContract.ChoreType",
          "name": "",
          "type": "uint8"
        }
      ],
      "name": "chores",
      "outputs": [
        {
          "internalType": "string",
          "name": "name",
          "type": "string"
        },
        {
          "internalType": "string",
          "name": "description",
          "type": "string"
        },
        {
          "internalType": "uint256",
          "name": "reward",
          "type": "uint256"
        },
        {
          "internalType": "uint256",
          "name": "timeLimit",
          "type": "uint256"
        }
      ],
      "stateMutability": "view",
      "type": "function"
    },
    {
      "inputs": [
        {
          "internalType": "enum YourContract.ChoreType",
          "name": "_choreType",
          "type": "uint8"
        }
      ],
      "name": "completeChore",
      "outputs": [],
      "stateMutability": "nonpayable",
      "type": "function"
    },
    {
      "inputs": [],
      "name": "emergencyWithdraw",
      "outputs": [],
      "stateMutability": "nonpayable",
      "type": "function"
    },
    {
      "inputs": [],
      "name": "fundContract",
      "outputs": [],
      "stateMutability": "payable",
      "type": "function"
    },
    {
      "inputs": [],
      "name": "getAllChores",
      "outputs": [
        {
          "internalType": "string[5]",
          "name": "names",
          "type": "string[5]"
        },
        {
          "internalType": "string[5]",
          "name": "descriptions",
          "type": "string[5]"
        },
        {
          "internalType": "uint256[5]",
          "name": "rewards",
          "type": "uint256[5]"
        },
        {
          "internalType": "uint256[5]",
          "name": "timeLimits",
          "type": "uint256[5]"
        }
      ],
      "stateMutability": "view",
      "type": "function"
    },
    {
      "inputs": [
        {
          "internalType": "uint256",
          "name": "tokenId",
          "type": "uint256"
        }
      ],
      "name": "getApproved",
      "outputs": [
        {
          "internalType": "address",
          "name": "",
          "type": "address"
        }
      ],
      "stateMutability": "view",
      "type": "function"
    },
    {
      "inputs": [
        {
          "internalType": "enum YourContract.ChoreType",
          "name": "_choreType",
          "type": "uint8"
        }
      ],
      "name": "getChore",
      "outputs": [
        {
          "components": [
            {
              "internalType": "string",
              "name": "name",
              "type": "string"
            },
            {
              "internalType": "string",
              "name": "description",
              "type": "string"
            },
            {
              "internalType": "uint256",
              "name": "reward",
              "type": "uint256"
            },
            {
              "internalType": "uint256",
              "name": "timeLimit",
              "type": "uint256"
            }
          ],
          "internalType": "struct YourContract.Chore",
          "name": "",
          "type": "tuple"
        }
      ],
      "stateMutability": "view",
      "type": "function"
    },
    {
      "inputs": [
        {
          "internalType": "uint256",
          "name": "_tokenId",
          "type": "uint256"
        }
      ],
      "name": "getNFTMetadata",
      "outputs": [
        {
          "components": [
            {
              "internalType": "enum YourContract.ChoreType",
              "name": "choreType",
              "type": "uint8"
            },
            {
              "internalType": "enum YourContract.NFTType",
              "name": "nftType",
              "type": "uint8"
            },
            {
              "internalType": "uint256",
              "name": "mintedAt",
              "type": "uint256"
            },
            {
              "internalType": "bool",
              "name": "isActive",
              "type": "bool"
            }
          ],
          "internalType": "struct YourContract.NFTMetadata",
          "name": "",
          "type": "tuple"
        }
      ],
      "stateMutability": "view",
      "type": "function"
    },
    {
      "inputs": [
        {
          "internalType": "address",
          "name": "_user",
          "type": "address"
        },
        {
          "internalType": "enum YourContract.ChoreType",
          "name": "_choreType",
          "type": "uint8"
        }
      ],
      "name": "getUserChore",
      "outputs": [
        {
          "components": [
            {
              "internalType": "enum YourContract.ChoreType",
              "name": "choreType",
              "type": "uint8"
            },
            {
              "internalType": "uint256",
              "name": "startTime",
              "type": "uint256"
            },
            {
              "internalType": "uint256",
              "name": "deadline",
              "type": "uint256"
            },
            {
              "internalType": "bool",
              "name": "completed",
              "type": "bool"
            },
            {
              "internalType": "bool",
              "name": "redeemed",
              "type": "bool"
            }
          ],
          "internalType": "struct YourContract.UserChore",
          "name": "",
          "type": "tuple"
        }
      ],
      "stateMutability": "view",
      "type": "function"
    },
    {
      "inputs": [
        {
          "internalType": "address",
          "name": "_user",
          "type": "address"
        }
      ],
      "name": "getUserChoreCompletionCounts",
      "outputs": [
        {
          "internalType": "uint256[5]",
          "name": "",
          "type": "uint256[5]"
        }
      ],
      "stateMutability": "view",
      "type": "function"
    },
    {
      "inputs": [
        {
          "internalType": "address",
          "name": "_user",
          "type": "address"
        }
      ],
      "name": "getUserNFTs",
      "outputs": [
        {
          "internalType": "uint256[]",
          "name": "",
          "type": "uint256[]"
        }
      ],
      "stateMutability": "view",
      "type": "function"
    },
    {
      "inputs": [
        {
          "internalType": "address",
          "name": "_user",
          "type": "address"
        }
      ],
      "name": "getUserStats",
      "outputs": [
        {
          "internalType": "uint256",
          "name": "achievementCount",
          "type": "uint256"
        },
        {
          "internalType": "uint256",
          "name": "totalRewards",
          "type": "uint256"
        },
        {
          "internalType": "uint256[]",
          "name": "userNFTList",
          "type": "uint256[]"
        }
      ],
      "stateMutability": "view",
      "type": "function"
    },
    {
      "inputs": [
        {
          "internalType": "address",
          "name": "owner",
          "type": "address"
        },
        {
          "internalType": "address",
          "name": "operator",
          "type": "address"
        }
      ],
      "name": "isApprovedForAll",
      "outputs": [
        {
          "internalType": "bool",
          "name": "",
          "type": "bool"
        }
      ],
      "stateMutability": "view",
      "type": "function"
    },
    {
      "inputs": [],
      "name": "lotteryChance",
      "outputs": [
        {
          "internalType": "uint256",
          "name": "",
          "type": "uint256"
        }
      ],
      "stateMutability": "view",
      "type": "function"
    },
    {
      "inputs": [],
      "name": "lotteryMultiplier",
      "outputs": [
        {
          "internalType": "uint256",
          "name": "",
          "type": "uint256"
        }
      ],
      "stateMutability": "view",
      "type": "function"
    },
    {
      "inputs": [],
      "name": "name",
      "outputs": [
        {
          "internalType": "string",
          "name": "",
          "type": "string"
        }
      ],
      "stateMutability": "view",
      "type": "function"
    },
    {
      "inputs": [
        {
          "internalType": "uint256",
          "name": "",
          "type": "uint256"
        }
      ],
      "name": "nftMetadata",
      "outputs": [
        {
          "internalType": "enum YourContract.ChoreType",
          "name": "choreType",
          "type": "uint8"
        },
        {
          "internalType": "enum YourContract.NFTType",
          "name": "nftType",
          "type": "uint8"
        },
        {
          "internalType": "uint256",
          "name": "mintedAt",
          "type": "uint256"
        },
        {
          "internalType": "bool",
          "name": "isActive",
          "type": "bool"
        }
      ],
      "stateMutability": "view",
      "type": "function"
    },
    {
      "inputs": [],
      "name": "owner",
      "outputs": [
        {
          "internalType": "address",
          "name": "",
          "type": "address"
        }
      ],
      "stateMutability": "view",
      "type": "function"
    },
    {
      "inputs": [
        {
          "internalType": "uint256",
          "name": "tokenId",
          "type": "uint256"
        }
      ],
      "name": "ownerOf",
      "outputs": [
        {
          "internalType": "address",
          "name": "",
          "type": "address"
        }
      ],
      "stateMutability": "view",
      "type": "function"
    },
    {
      "inputs": [],
      "name": "renounceOwnership",
      "outputs": [],
      "stateMutability": "nonpayable",
      "type": "function"
    },
    {
      "inputs": [
        {
          "internalType": "address",
          "name": "from",
          "type": "address"
        },
        {
          "internalType": "address",
          "name": "to",
          "type": "address"
        },
        {
          "internalType": "uint256",
          "name": "tokenId",
          "type": "uint256"
        }
      ],
      "name": "safeTransferFrom",
      "outputs": [],
      "stateMutability": "nonpayable",
      "type": "function"
    },
    {
      "inputs": [
        {
          "internalType": "address",
          "name": "from",
          "type": "address"
        },
        {
          "internalType": "address",
          "name": "to",
          "type": "address"
        },
        {
          "internalType": "uint256",
          "name": "tokenId",
          "type": "uint256"
        },
        {
          "internalType": "bytes",
          "name": "data",
          "type": "bytes"
        }
      ],
      "name": "safeTransferFrom",
      "outputs": [],
      "stateMutability": "nonpayable",
      "type": "function"
    },
    {
      "inputs": [
        {
          "internalType": "enum YourContract.ChoreType",
          "name": "_choreType",
          "type": "uint8"
        }
      ],
      "name": "selectChore",
      "outputs": [],
      "stateMutability": "nonpayable",
      "type": "function"
    },
    {
      "inputs": [
        {
          "internalType": "address",
          "name": "operator",
          "type": "address"
        },
        {
          "internalType": "bool",
          "name": "approved",
          "type": "bool"
        }
      ],
      "name": "setApprovalForAll",
      "outputs": [],
      "stateMutability": "nonpayable",
      "type": "function"
    },
    {
      "inputs": [
        {
          "internalType": "uint256",
          "name": "_chance",
          "type": "uint256"
        }
      ],
      "name": "setLotteryChance",
      "outputs": [],
      "stateMutability": "nonpayable",
      "type": "function"
    },
    {
      "inputs": [
        {
          "internalType": "uint256",
          "name": "_multiplier",
          "type": "uint256"
        }
      ],
      "name": "setLotteryMultiplier",
      "outputs": [],
      "stateMutability": "nonpayable",
      "type": "function"
    },
    {
      "inputs": [
        {
          "internalType": "bytes4",
          "name": "interfaceId",
          "type": "bytes4"
        }
      ],
      "name": "supportsInterface",
      "outputs": [
        {
          "internalType": "bool",
          "name": "",
          "type": "bool"
        }
      ],
      "stateMutability": "view",
      "type": "function"
    },
    {
      "inputs": [],
      "name": "symbol",
      "outputs": [
        {
          "internalType": "string",
          "name": "",
          "type": "string"
        }
      ],
      "stateMutability": "view",
      "type": "function"
    },
    {
      "inputs": [
        {
          "internalType": "uint256",
          "name": "tokenId",
          "type": "uint256"
        }
      ],
      "name": "tokenURI",
      "outputs": [
        {
          "internalType": "string",
          "name": "",
          "type": "string"
        }
      ],
      "stateMutability": "view",
      "type": "function"
    },
    {
      "inputs": [],
      "name": "totalChoresCompleted",
      "outputs": [
        {
          "internalType": "uint256",
          "name": "",
          "type": "uint256"
        }
      ],
      "stateMutability": "view",
      "type": "function"
    },
    {
      "inputs": [],
      "name": "totalRewardsPaid",
      "outputs": [
        {
          "internalType": "uint256",
          "name": "",
          "type": "uint256"
        }
      ],
      "stateMutability": "view",
      "type": "function"
    },
    {
      "inputs": [
        {
          "internalType": "address",
          "name": "from",
          "type": "address"
        },
        {
          "internalType": "address",
          "name": "to",
          "type": "address"
        },
        {
          "internalType": "uint256",
          "name": "tokenId",
          "type": "uint256"
        }
      ],
      "name": "transferFrom",
      "outputs": [],
      "stateMutability": "nonpayable",
      "type": "function"
    },
    {
      "inputs": [
        {
          "internalType": "address",
          "name": "newOwner",
          "type": "address"
        }
      ],
      "name": "transferOwnership",
      "outputs": [],
      "stateMutability": "nonpayable",
      "type": "function"
    },
    {
      "inputs": [
        {
          "internalType": "address",
          "name": "",
          "type": "address"
        }
      ],
      "name": "userAchievementCount",
      "outputs": [
        {
          "internalType": "uint256",
          "name": "",
          "type": "uint256"
        }
      ],
      "stateMutability": "view",
      "type": "function"
    },
    {
      "inputs": [
        {
          "internalType": "address",
          "name": "",
          "type": "address"
        },
        {
          "internalType": "enum YourContract.ChoreType",
          "name": "",
          "type": "uint8"
        }
      ],
      "name": "userChoreCompletionCount",
      "outputs": [
        {
          "internalType": "uint256",
          "name": "",
          "type": "uint256"
        }
      ],
      "stateMutability": "view",
      "type": "function"
    },
    {
      "inputs": [
        {
          "internalType": "address",
          "name": "",
          "type": "address"
        },
        {
          "internalType": "enum YourContract.ChoreType",
          "name": "",
          "type": "uint8"
        }
      ],
      "name": "userChores",
      "outputs": [
        {
          "internalType": "enum YourContract.ChoreType",
          "name": "choreType",
          "type": "uint8"
        },
        {
          "internalType": "uint256",
          "name": "startTime",
          "type": "uint256"
        },
        {
          "internalType": "uint256",
          "name": "deadline",
          "type": "uint256"
        },
        {
          "internalType": "bool",
          "name": "completed",
          "type": "bool"
        },
        {
          "internalType": "bool",
          "name": "redeemed",
          "type": "bool"
        }
      ],
      "stateMutability": "view",
      "type": "function"
    },
    {
      "inputs": [
        {
          "internalType": "address",
          "name": "",
          "type": "address"
        },
        {
          "internalType": "uint256",
          "name": "",
          "type": "uint256"
        }
      ],
      "name": "userNFTs",
      "outputs": [
        {
          "internalType": "uint256",
          "name": "",
          "type": "uint256"
        }
      ],
      "stateMutability": "view",
      "type": "function"
    },
    {
      "inputs": [
        {
          "internalType": "address",
          "name": "",
          "type": "address"
        }
      ],
      "name": "userTotalRewards",
      "outputs": [
        {
          "internalType": "uint256",
          "name": "",
          "type": "uint256"
        }
      ],
      "stateMutability": "view",
      "type": "function"
    },
    {
      "stateMutability": "payable",
      "type": "receive"
    }
  ],
  "transactionHash": "0x630a160bf0aa811908b2f079599cc8883a20692cc83261118dc85c1b757a6adb",
  "args": [
    "0x50C97e2D5f3d1dC49b494A7930f1dd423f770C83"
  ],
  "numDeployments": 2,
  "solcInputHash": "8877d412fe410720ec583cd85ca45f5f",
  "bytecode": "0x608060405260016007556000600f556000601055600a60115560026012553480156200002a57600080fd5b5060405162003e9438038062003e948339810160408190526200004d9162000587565b806040518060400160405280600d81526020016c125b98d95b9d1a599a48139195609a1b815250604051806040016040528060048152602001630929c86960e31b8152508160009081620000a291906200065e565b506001620000b182826200065e565b5050506001600160a01b038116620000e357604051631e4fbdf760e01b81526000600482015260240160405180910390fd5b620000ee8162000535565b5060405180608001604052806040518060400160405280601081526020016f54616b65204f7574204761726261676560801b81525081526020016040518060600160405280602c815260200162003e68602c9139815267016345785d8a00006020808301919091526002604090920191909152600080526008905280517f5eff886ea0ce6ca488a3d6e336d6c0f75f46d19b42c06ce5ee98e42c96d256c79081906200019b90826200065e565b5060208201516001820190620001b290826200065e565b50604082015181600201556060820151816003015590505060405180608001604052806040518060400160405280600b81526020016a576173682044697368657360a81b815250815260200160405180606001604052806023815260200162003e4560239139815266b1a2bc2ec50000602080830191909152600160409092018290526000919091526008905280517fad67d757c34507f157cacfa2e3153e9f260a2244f30428821be7be64587ac55f9081906200027190826200065e565b50602082015160018201906200028890826200065e565b50604082015181600201556060820151816003015590505060405180608001604052806040518060400160405280600881526020016757616c6b20446f6760c01b815250815260200160405180606001604052806021815260200162003dfa60219139815267011c37937e080000602080830191909152600360409092019190915260026000526008905280517f6add646517a5b0f6793cd5891b7937d28a5b2981a5d88ebc7cd776088fea90419081906200034590826200065e565b50602082015160018201906200035c90826200065e565b506040828101516002830155606092830151600392830155805160c081018252600b608082019081526a446f20486f6d65776f726b60a81b60a0830152815281518083018352601e81527f436f6d706c65746520616c6c2061737369676e656420686f6d65776f726b000060208281019190915280830191909152670214e8348c4f0000928201929092526018938101939093526000919091526008905280517f625b35f5e76f098dd7c3a05b10e2e5e78a4a01228d60c3b143426cdf36d264559081906200042c90826200065e565b50602082015160018201906200044390826200065e565b50604082015181600201556060820151816003015590505060405180608001604052806040518060400160405280600881526020016726b7bb902630bbb760c11b81525081526020016040518060600160405280602a815260200162003e1b602a913981526702c68af0bb140000602080830191909152600660409092019190915260046000526008905280517f9321edea6e3be4df59a344b401fab4f888b556fda1f954244cff9204bad624b89081906200050090826200065e565b50602082015160018201906200051790826200065e565b5060408201516002820155606090910151600390910155506200072a565b600680546001600160a01b038381166001600160a01b0319831681179093556040519116919082907f8be0079c531659141344cd1fd0a4f28419497f9722a3daafe3b4186f6b6457e090600090a35050565b6000602082840312156200059a57600080fd5b81516001600160a01b0381168114620005b257600080fd5b9392505050565b634e487b7160e01b600052604160045260246000fd5b600181811c90821680620005e457607f821691505b6020821081036200060557634e487b7160e01b600052602260045260246000fd5b50919050565b601f8211156200065957600081815260208120601f850160051c81016020861015620006345750805b601f850160051c820191505b81811015620006555782815560010162000640565b5050505b505050565b81516001600160401b038111156200067a576200067a620005b9565b62000692816200068b8454620005cf565b846200060b565b602080601f831160018114620006ca5760008415620006b15750858301515b600019600386901b1c1916600185901b17855562000655565b600085815260208120601f198616915b82811015620006fb57888601518255948401946001909101908401620006da565b50858210156200071a5787850151600019600388901b60f8161c191681555b5050505050600190811b01905550565b6136c0806200073a6000396000f3fe60806040526004361061024a5760003560e01c8063715018a611610139578063c2bbad66116100b6578063df74d1661161007a578063df74d166146107a2578063e985e9c5146107c2578063f2fde38b146107e2578063f312c02814610802578063f6a3f3cf14610815578063f8dec9821461084257600080fd5b8063c2bbad66146106fd578063c87b56dd14610713578063cb5c7a8f14610733578063d8a8094e14610760578063db2e21bc1461078d57600080fd5b8063a22cb465116100fd578063a22cb46514610675578063afb8bee614610695578063b6c7f1f2146106b5578063b88d4fde146106d5578063bd097e21146106f557600080fd5b8063715018a6146105ab57806374958e35146105c05780638a116ec2146105d65780638da5cb5b1461064257806395d89b411461066057600080fd5b8063291c73c3116101c75780634e43603a1161018b5780634e43603a146104e257806352de4ee5146105115780636352211e1461053e5780636be9a6f11461055e57806370a082311461058b57600080fd5b8063291c73c3146103eb5780632e16a8fe1461040b57806342842e0e1461044357806349541015146104635780634981ed53146104bd57600080fd5b8063095ea7b31161020e578063095ea7b314610336578063106cd6951461035857806319618196146103885780631fe73df71461039e57806323b872dd146103cb57600080fd5b806301ffc9a714610256578063056fd86a1461028b57806306fdde03146102b857806307cf87a0146102da578063081812fc146102fe57600080fd5b3661025157005b600080fd5b34801561026257600080fd5b50610276610271366004612cf2565b610862565b60405190151581526020015b60405180910390f35b34801561029757600080fd5b506102ab6102a6366004612d2b565b6108b4565b6040516102829190612d69565b3480156102c457600080fd5b506102cd61095c565b6040516102829190612dc7565b3480156102e657600080fd5b506102f060125481565b604051908152602001610282565b34801561030a57600080fd5b5061031e610319366004612dda565b6109ee565b6040516001600160a01b039091168152602001610282565b34801561034257600080fd5b50610356610351366004612df3565b610a17565b005b34801561036457600080fd5b50610378610373366004612e2c565b610a26565b6040516102829493929190612e47565b34801561039457600080fd5b506102f060115481565b3480156103aa57600080fd5b506102f06103b9366004612d2b565b600c6020526000908152604090205481565b3480156103d757600080fd5b506103566103e6366004612e80565b610b5e565b3480156103f757600080fd5b506102f0610406366004612df3565b610bee565b34801561041757600080fd5b506102f0610426366004612ebc565b600e60209081526000928352604080842090915290825290205481565b34801561044f57600080fd5b5061035661045e366004612e80565b610c1f565b34801561046f57600080fd5b506104ad61047e366004612dda565b600b6020526000908152604090208054600182015460029092015460ff80831693610100909304811692911684565b6040516102829493929190612f29565b3480156104c957600080fd5b506104d2610c3f565b6040516102829493929190612fa0565b3480156104ee57600080fd5b506105026104fd366004612d2b565b610e8c565b60405161028293929190613029565b34801561051d57600080fd5b5061053161052c366004612d2b565b610f13565b6040516102829190613048565b34801561054a57600080fd5b5061031e610559366004612dda565b610f7f565b34801561056a57600080fd5b5061057e610579366004612dda565b610f8a565b604051610282919061305b565b34801561059757600080fd5b506102f06105a6366004612d2b565b61104f565b3480156105b757600080fd5b50610356611097565b3480156105cc57600080fd5b506102f060105481565b3480156105e257600080fd5b506106316105f1366004612ebc565b6009602090815260009283526040808420909152908252902080546001820154600283015460039093015460ff9283169391928181169161010090041685565b60405161028295949392919061309d565b34801561064e57600080fd5b506006546001600160a01b031661031e565b34801561066c57600080fd5b506102cd6110ab565b34801561068157600080fd5b506103566106903660046130d0565b6110ba565b3480156106a157600080fd5b506103566106b0366004612dda565b6110c5565b3480156106c157600080fd5b506103566106d0366004612e2c565b61111b565b3480156106e157600080fd5b506103566106f0366004613122565b6112f2565b61035661130a565b34801561070957600080fd5b506102f0600f5481565b34801561071f57600080fd5b506102cd61072e366004612dda565b611312565b34801561073f57600080fd5b5061075361074e366004612ebc565b61158e565b60405161028291906131fe565b34801561076c57600080fd5b5061078061077b366004612e2c565b611673565b6040516102829190613243565b34801561079957600080fd5b5061035661181d565b3480156107ae57600080fd5b506103566107bd366004612dda565b6118d0565b3480156107ce57600080fd5b506102766107dd36600461329d565b61192e565b3480156107ee57600080fd5b506103566107fd366004612d2b565b61195c565b610356610810366004612e2c565b611997565b34801561082157600080fd5b506102f0610830366004612d2b565b600d6020526000908152604090205481565b34801561084e57600080fd5b5061035661085d366004612e2c565b611e79565b60006001600160e01b031982166380ac58cd60e01b148061089357506001600160e01b03198216635b5e139f60e01b145b806108ae57506301ffc9a760e01b6001600160e01b03198316145b92915050565b6108bc612c97565b6108c4612c97565b60005b6005811015610955576001600160a01b0384166000908152600e60205260408120908260048111156108fb576108fb612eef565b600481111561090c5761090c612eef565b600481111561091d5761091d612eef565b81526020019081526020016000205482826005811061093e5761093e6132c7565b60200201528061094d816132f3565b9150506108c7565b5092915050565b60606000805461096b9061330c565b80601f01602080910402602001604051908101604052809291908181526020018280546109979061330c565b80156109e45780601f106109b9576101008083540402835291602001916109e4565b820191906000526020600020905b8154815290600101906020018083116109c757829003601f168201915b5050505050905090565b60006109f982612366565b506000828152600460205260409020546001600160a01b03166108ae565b610a2282823361239f565b5050565b600860205260009081526040902080548190610a419061330c565b80601f0160208091040260200160405190810160405280929190818152602001828054610a6d9061330c565b8015610aba5780601f10610a8f57610100808354040283529160200191610aba565b820191906000526020600020905b815481529060010190602001808311610a9d57829003601f168201915b505050505090806001018054610acf9061330c565b80601f0160208091040260200160405190810160405280929190818152602001828054610afb9061330c565b8015610b485780601f10610b1d57610100808354040283529160200191610b48565b820191906000526020600020905b815481529060010190602001808311610b2b57829003601f168201915b5050505050908060020154908060030154905084565b6001600160a01b038216610b8d57604051633250574960e11b8152600060048201526024015b60405180910390fd5b6000610b9a8383336123ac565b9050836001600160a01b0316816001600160a01b031614610be8576040516364283d7b60e01b81526001600160a01b0380861660048301526024820184905282166044820152606401610b84565b50505050565b600a6020528160005260406000208181548110610c0a57600080fd5b90600052602060002001600091509150505481565b610c3a838383604051806020016040528060008152506112f2565b505050565b610c47612cb5565b610c4f612cb5565b610c57612c97565b610c5f612c97565b60005b6005811015610e85576000816004811115610c7f57610c7f612eef565b9050600060086000836004811115610c9957610c99612eef565b6004811115610caa57610caa612eef565b8152602001908152602001600020604051806080016040529081600082018054610cd39061330c565b80601f0160208091040260200160405190810160405280929190818152602001828054610cff9061330c565b8015610d4c5780601f10610d2157610100808354040283529160200191610d4c565b820191906000526020600020905b815481529060010190602001808311610d2f57829003601f168201915b50505050508152602001600182018054610d659061330c565b80601f0160208091040260200160405190810160405280929190818152602001828054610d919061330c565b8015610dde5780601f10610db357610100808354040283529160200191610dde565b820191906000526020600020905b815481529060010190602001808311610dc157829003601f168201915b505050505081526020016002820154815260200160038201548152505090508060000151878460058110610e1457610e146132c7565b60200201819052508060200151868460058110610e3357610e336132c7565b60200201526040810151858460058110610e4f57610e4f6132c7565b60200201526060810151848460058110610e6b57610e6b6132c7565b602002015250819050610e7d816132f3565b915050610c62565b5090919293565b6001600160a01b0381166000908152600c6020908152604080832054600d835281842054600a845282852080548451818702810187019095528085528695606095918391830182828015610eff57602002820191906000526020600020905b815481526020019060010190808311610eeb575b505050505090509250925092509193909250565b6001600160a01b0381166000908152600a6020908152604091829020805483518184028101840190945280845260609392830182828015610f7357602002820191906000526020600020905b815481526020019060010190808311610f5f575b50505050509050919050565b60006108ae82612366565b610fb6604080516080810190915280600081526020016000815260006020820181905260409091015290565b6000828152600b6020526040908190208151608081019092528054829060ff166004811115610fe757610fe7612eef565b6004811115610ff857610ff8612eef565b81528154602090910190610100900460ff16600181111561101b5761101b612eef565b600181111561102c5761102c612eef565b81526001820154602082015260029091015460ff16151560409091015292915050565b60006001600160a01b03821661107b576040516322718ad960e21b815260006004820152602401610b84565b506001600160a01b031660009081526003602052604090205490565b61109f6124a7565b6110a960006124d4565b565b60606001805461096b9061330c565b610a22338383612526565b6110cd6124a7565b60648111156111165760405162461bcd60e51b815260206004820152601560248201527404368616e6365206d757374206265203c3d2031303605c1b6044820152606401610b84565b601155565b3360009081526009602052604081208183600481111561113d5761113d612eef565b600481111561114e5761114e612eef565b8152602001908152602001600020905060008160010154116111a65760405162461bcd60e51b815260206004820152601160248201527010da1bdc99481b9bdd081cdd185c9d1959607a1b6044820152606401610b84565b600381015460ff16156111fb5760405162461bcd60e51b815260206004820152601760248201527f43686f726520616c726561647920636f6d706c657465640000000000000000006044820152606401610b84565b80600201544211156112475760405162461bcd60e51b815260206004820152601560248201527410da1bdc9948191958591b1a5b99481c185cdcd959605a1b6044820152606401610b84565b60038101805460ff19166001179055336000908152600e602052604081209083600481111561127857611278612eef565b600481111561128957611289612eef565b815260200190815260200160002060008154809291906112a8906132f3565b9190505550336001600160a01b03167f5e2a9455412c55ba6da7e4ae4ea8d3e6c540fbc32acb99d8277db894f6655d3c836040516112e69190613346565b60405180910390a25050565b6112fd848484610b5e565b610be833858585856125c5565b6110a96124a7565b6000818152600260205260409020546060906001600160a01b03166113705760405162461bcd60e51b8152602060048201526014602482015273151bdad95b88191bd95cc81b9bdd08195e1a5cdd60621b6044820152606401610b84565b6000828152600b60205260408082208151608081019092528054829060ff1660048111156113a0576113a0612eef565b60048111156113b1576113b1612eef565b81528154602090910190610100900460ff1660018111156113d4576113d4612eef565b60018111156113e5576113e5612eef565b81526001820154602082015260029091015460ff16151560409091015290506000808260200151600181111561141d5761141d612eef565b1461144b576040518060400160405280600b81526020016a1058da1a595d995b595b9d60aa1b81525061146a565b6040518060400160405280600581526020016443686f726560d81b8152505b90506000600860008460000151600481111561148857611488612eef565b600481111561149957611499612eef565b815260200190815260200160002060000180546114b59061330c565b80601f01602080910402602001604051908101604052809291908181526020018280546114e19061330c565b801561152e5780601f106115035761010080835404028352916020019161152e565b820191906000526020600020905b81548152906001019060200180831161151157829003601f168201915b505050505090506115658282838585604051602001611551959493929190613370565b6040516020818303038152906040526126f0565b60405160200161157591906134e0565b6040516020818303038152906040529350505050919050565b6040805160a0810182526000808252602080830182905282840182905260608301829052608083018290526001600160a01b03861682526009905291822090918360048111156115e0576115e0612eef565b60048111156115f1576115f1612eef565b815260208101919091526040908101600020815160a081019092528054829060ff16600481111561162457611624612eef565b600481111561163557611635612eef565b8152600182015460208201526002820154604082015260039091015460ff808216151560608401526101009091041615156080909101529392505050565b61169e6040518060800160405280606081526020016060815260200160008152602001600081525090565b600860008360048111156116b4576116b4612eef565b60048111156116c5576116c5612eef565b81526020019081526020016000206040518060800160405290816000820180546116ee9061330c565b80601f016020809104026020016040519081016040528092919081815260200182805461171a9061330c565b80156117675780601f1061173c57610100808354040283529160200191611767565b820191906000526020600020905b81548152906001019060200180831161174a57829003601f168201915b505050505081526020016001820180546117809061330c565b80601f01602080910402602001604051908101604052809291908181526020018280546117ac9061330c565b80156117f95780601f106117ce576101008083540402835291602001916117f9565b820191906000526020600020905b8154815290600101906020018083116117dc57829003601f168201915b50505050508152602001600282015481526020016003820154815250509050919050565b6118256124a7565b60006118396006546001600160a01b031690565b6001600160a01b03164760405160006040518083038185875af1925050503d8060008114611883576040519150601f19603f3d011682016040523d82523d6000602084013e611888565b606091505b50509050806118cd5760405162461bcd60e51b815260206004820152601160248201527015da5d1a191c985dd85b0819985a5b1959607a1b6044820152606401610b84565b50565b6118d86124a7565b60018110156119295760405162461bcd60e51b815260206004820152601760248201527f4d756c7469706c696572206d757374206265203e3d20310000000000000000006044820152606401610b84565b601255565b6001600160a01b03918216600090815260056020908152604080832093909416825291909152205460ff1690565b6119646124a7565b6001600160a01b03811661198e57604051631e4fbdf760e01b815260006004820152602401610b84565b6118cd816124d4565b336000908152600960205260408120818360048111156119b9576119b9612eef565b60048111156119ca576119ca612eef565b81526020810191909152604001600020600381015490915060ff16611a275760405162461bcd60e51b815260206004820152601360248201527210da1bdc99481b9bdd0818dbdb5c1b195d1959606a1b6044820152606401610b84565b6003810154610100900460ff1615611a7a5760405162461bcd60e51b815260206004820152601660248201527514995dd85c9908185b1c9958591e4818db185a5b595960521b6044820152606401610b84565b6000611a86833361284b565b905080600003611ace5760405162461bcd60e51b815260206004820152601360248201527210da1bdc9948139195081b9bdd08199bdd5b99606a1b6044820152606401610b84565b6000818152600b60205260409020600201805460ff19169055611af08161298b565b60405181907f3c176691ca154a2f6fe978a2a633a33ee77dbe2902e67a75400720845a4b2ce190600090a26000611b256129c6565b9050600060086000866004811115611b3f57611b3f612eef565b6004811115611b5057611b50612eef565b8152602001908152602001600020600201549050600082611b715781611b7e565b601254611b7e9083613525565b600780549192506000919082611b93836132f3565b919050559050611ba33382612a30565b6040518060800160405280886004811115611bc057611bc0612eef565b81526020016001815242602080830191909152600160409283018190526000858152600b9092529190208251815491929091839160ff1990911690836004811115611c0d57611c0d612eef565b021790555060208201518154829061ff001916610100836001811115611c3557611c35612eef565b02179055506040828101516001838101919091556060909301516002909201805460ff191692151592909217909155336000818152600a6020908152838220805495860181558252808220909401859055908152600c9092528120805491611c9c836132f3565b9091555050336000908152600d602052604081208054849290611cc090849061353c565b909155505060038601805461ff001916610100179055600f8054906000611ce6836132f3565b91905055508160106000828254611cfd919061353c565b909155505047821115611d525760405162461bcd60e51b815260206004820152601d60248201527f496e73756666696369656e7420636f6e74726163742062616c616e63650000006044820152606401610b84565b604051600090339084908381818185875af1925050503d8060008114611d94576040519150601f19603f3d011682016040523d82523d6000602084013e611d99565b606091505b5050905080611de35760405162461bcd60e51b815260206004820152601660248201527514995dd85c99081d1c985b9cd9995c8819985a5b195960521b6044820152606401610b84565b336001600160a01b03167ff7a4ee7c47e41fa247f28037503ff63027026aead40370013406876c356a98fa89858886604051611e22949392919061354f565b60405180910390a2336001600160a01b0316827f1cebf3afea95d47722e3c163fe073afdfd2f301be4499121c31c6a5875a0e60f60018b604051611e67929190613578565b60405180910390a35050505050505050565b33600090815260096020526040812090826004811115611e9b57611e9b612eef565b6004811115611eac57611eac612eef565b81526020019081526020016000206001015460001480611f17575033600090815260096020526040812090826004811115611ee957611ee9612eef565b6004811115611efa57611efa612eef565b8152602081019190915260400160002060030154610100900460ff165b611f5a5760405162461bcd60e51b815260206004820152601460248201527343686f726520616c72656164792061637469766560601b6044820152606401610b84565b600060086000836004811115611f7257611f72612eef565b6004811115611f8357611f83612eef565b8152602001908152602001600020604051806080016040529081600082018054611fac9061330c565b80601f0160208091040260200160405190810160405280929190818152602001828054611fd89061330c565b80156120255780601f10611ffa57610100808354040283529160200191612025565b820191906000526020600020905b81548152906001019060200180831161200857829003601f168201915b5050505050815260200160018201805461203e9061330c565b80601f016020809104026020016040519081016040528092919081815260200182805461206a9061330c565b80156120b75780601f1061208c576101008083540402835291602001916120b7565b820191906000526020600020905b81548152906001019060200180831161209a57829003601f168201915b5050505050815260200160028201548152602001600382015481525050905060008160600151610e106120ea9190613525565b6120f4904261353c565b90506040518060a0016040528084600481111561211357612113612eef565b81524260208083019190915260408083018590526000606084018190526080909301839052338352600990915281209085600481111561215557612155612eef565b600481111561216657612166612eef565b8152602081019190915260400160002081518154829060ff1916600183600481111561219457612194612eef565b0217905550602082015160018201556040820151600282015560608201516003909101805460809093015115156101000261ff00199215159290921661ffff199093169290921717905560078054600091826121ef836132f3565b9190505590506121ff3382612a30565b604051806080016040528085600481111561221c5761221c612eef565b81526020016000815242602080830191909152600160409283018190526000858152600b9092529190208251815491929091839160ff199091169083600481111561226957612269612eef565b021790555060208201518154829061ff00191661010083600181111561229157612291612eef565b02179055506040828101516001838101919091556060909301516002909201805460ff191692151592909217909155336000818152600a60209081528382208054958601815582529020909201839055517f2dc17ba808ce3b28996ca855512cbebff5fe51dc173fa538e1c975f62f2b8b319061231390879085908790613593565b60405180910390a2336001600160a01b0316817f1cebf3afea95d47722e3c163fe073afdfd2f301be4499121c31c6a5875a0e60f600087604051612358929190613578565b60405180910390a350505050565b6000818152600260205260408120546001600160a01b0316806108ae57604051637e27328960e01b815260048101849052602401610b84565b610c3a8383836001612a4a565b6000828152600260205260408120546001600160a01b03908116908316156123d9576123d9818486612b50565b6001600160a01b03811615612417576123f6600085600080612a4a565b6001600160a01b038116600090815260036020526040902080546000190190555b6001600160a01b03851615612446576001600160a01b0385166000908152600360205260409020805460010190555b60008481526002602052604080822080546001600160a01b0319166001600160a01b0389811691821790925591518793918516917fddf252ad1be2c89b69c2b068fc378daa952ba7f163c4a11628f55a4df523b3ef91a490505b9392505050565b6006546001600160a01b031633146110a95760405163118cdaa760e01b8152336004820152602401610b84565b600680546001600160a01b038381166001600160a01b0319831681179093556040519116919082907f8be0079c531659141344cd1fd0a4f28419497f9722a3daafe3b4186f6b6457e090600090a35050565b6001600160a01b03821661255857604051630b61174360e31b81526001600160a01b0383166004820152602401610b84565b6001600160a01b03838116600081815260056020908152604080832094871680845294825291829020805460ff191686151590811790915591519182527f17307eab39ab6107e8899845ad3d59bd9653f200f220920489ca2b5937696c31910160405180910390a3505050565b6001600160a01b0383163b156126e957604051630a85bd0160e11b81526001600160a01b0384169063150b7a02906126079088908890879087906004016135b2565b6020604051808303816000875af1925050508015612642575060408051601f3d908101601f1916820190925261263f918101906135ef565b60015b6126ab573d808015612670576040519150601f19603f3d011682016040523d82523d6000602084013e612675565b606091505b5080516000036126a357604051633250574960e11b81526001600160a01b0385166004820152602401610b84565b805160208201fd5b6001600160e01b03198116630a85bd0160e11b146126e757604051633250574960e11b81526001600160a01b0385166004820152602401610b84565b505b5050505050565b6060600060405180606001604052806040815260200161364b604091399050825160000361272e575050604080516020810190915260008152919050565b6000600384516002612740919061353c565b61274a9190613622565b612755906004613525565b67ffffffffffffffff81111561276d5761276d61310c565b6040519080825280601f01601f191660200182016040528015612797576020820181803683370190505b509050600182016020820160005b86518110156128085760208188010151603f601282901c8116850151600c83901c8216860151600684901c831687015192909316860151600891821b60ff94851601821b92841692909201901b91160160e01b82526004909101906003016127a5565b50600386510660018114612823576002811461283457612840565b613d3d60f01b600119830152612840565b603d60f81b6000198301525b509195945050505050565b6001600160a01b0381166000908152600a60209081526040808320805482518185028101850190935280835284938301828280156128a857602002820191906000526020600020905b815481526020019060010190808311612894575b5050505050905060005b81518110156129805760008282815181106128cf576128cf6132c7565b602002602001015190508560048111156128eb576128eb612eef565b6000828152600b602052604090205460ff16600481111561290e5761290e612eef565b1480156129415750600080828152600b6020526040902054610100900460ff16600181111561293f5761293f612eef565b145b801561295e57506000818152600b602052604090206002015460ff165b1561296d5792506108ae915050565b5080612978816132f3565b9150506128b2565b506000949350505050565b600061299a60008360006123ac565b90506001600160a01b038116610a2257604051637e27328960e01b815260048101839052602401610b84565b6000806064424433604051602001612a0393929190928352602083019190915260601b6bffffffffffffffffffffffff1916604082015260540190565b6040516020818303038152906040528051906020012060001c612a269190613636565b6011541192915050565b610a22828260405180602001604052806000815250612bb4565b8080612a5e57506001600160a01b03821615155b15612b20576000612a6e84612366565b90506001600160a01b03831615801590612a9a5750826001600160a01b0316816001600160a01b031614155b8015612aad5750612aab818461192e565b155b15612ad65760405163a9fbf51f60e01b81526001600160a01b0384166004820152602401610b84565b8115612b1e5783856001600160a01b0316826001600160a01b03167f8c5be1e5ebec7d5bd14f71427d1e84f3dd0314c0f7b2291e5b200ac8c7c3b92560405160405180910390a45b505b5050600090815260046020526040902080546001600160a01b0319166001600160a01b0392909216919091179055565b612b5b838383612bcc565b610c3a576001600160a01b038316612b8957604051637e27328960e01b815260048101829052602401610b84565b60405163177e802f60e01b81526001600160a01b038316600482015260248101829052604401610b84565b612bbe8383612c32565b610c3a3360008585856125c5565b60006001600160a01b03831615801590612c2a5750826001600160a01b0316846001600160a01b03161480612c065750612c06848461192e565b80612c2a57506000828152600460205260409020546001600160a01b038481169116145b949350505050565b6001600160a01b038216612c5c57604051633250574960e11b815260006004820152602401610b84565b6000612c6a838360006123ac565b90506001600160a01b03811615610c3a576040516339e3563760e11b815260006004820152602401610b84565b6040518060a001604052806005906020820280368337509192915050565b6040518060a001604052806005905b6060815260200190600190039081612cc45790505090565b6001600160e01b0319811681146118cd57600080fd5b600060208284031215612d0457600080fd5b81356124a081612cdc565b80356001600160a01b0381168114612d2657600080fd5b919050565b600060208284031215612d3d57600080fd5b6124a082612d0f565b8060005b6005811015610be8578151845260209384019390910190600101612d4a565b60a081016108ae8284612d46565b60005b83811015612d92578181015183820152602001612d7a565b50506000910152565b60008151808452612db3816020860160208601612d77565b601f01601f19169290920160200192915050565b6020815260006124a06020830184612d9b565b600060208284031215612dec57600080fd5b5035919050565b60008060408385031215612e0657600080fd5b612e0f83612d0f565b946020939093013593505050565b803560058110612d2657600080fd5b600060208284031215612e3e57600080fd5b6124a082612e1d565b608081526000612e5a6080830187612d9b565b8281036020840152612e6c8187612d9b565b604084019590955250506060015292915050565b600080600060608486031215612e9557600080fd5b612e9e84612d0f565b9250612eac60208501612d0f565b9150604084013590509250925092565b60008060408385031215612ecf57600080fd5b612ed883612d0f565b9150612ee660208401612e1d565b90509250929050565b634e487b7160e01b600052602160045260246000fd5b60058110612f1557612f15612eef565b9052565b60028110612f1557612f15612eef565b60808101612f378287612f05565b612f446020830186612f19565b836040830152821515606083015295945050505050565b60008260a081018360005b6005811015612f95578383038752612f7f838351612d9b565b6020978801979093509190910190600101612f66565b509095945050505050565b6000610180808352612fb481840188612f5b565b90508281036020840152612fc88187612f5b565b915050612fd86040830185612d46565b612fe560e0830184612d46565b95945050505050565b600081518084526020808501945080840160005b8381101561301e57815187529582019590820190600101613002565b509495945050505050565b838152826020820152606060408201526000612fe56060830184612fee565b6020815260006124a06020830184612fee565b600060808201905061306e828451612f05565b60208301516130806020840182612f19565b506040830151604083015260608301511515606083015292915050565b60a081016130ab8288612f05565b6020820195909552604081019390935290151560608301521515608090910152919050565b600080604083850312156130e357600080fd5b6130ec83612d0f565b91506020830135801515811461310157600080fd5b809150509250929050565b634e487b7160e01b600052604160045260246000fd5b6000806000806080858703121561313857600080fd5b61314185612d0f565b935061314f60208601612d0f565b925060408501359150606085013567ffffffffffffffff8082111561317357600080fd5b818701915087601f83011261318757600080fd5b8135818111156131995761319961310c565b604051601f8201601f19908116603f011681019083821181831017156131c1576131c161310c565b816040528281528a60208487010111156131da57600080fd5b82602086016020830137600060208483010152809550505050505092959194509250565b600060a082019050613211828451612f05565b602083015160208301526040830151604083015260608301511515606083015260808301511515608083015292915050565b60208152600082516080602084015261325f60a0840182612d9b565b90506020840151601f1984830301604085015261327c8282612d9b565b91505060408401516060840152606084015160808401528091505092915050565b600080604083850312156132b057600080fd5b6132b983612d0f565b9150612ee660208401612d0f565b634e487b7160e01b600052603260045260246000fd5b634e487b7160e01b600052601160045260246000fd5b600060018201613305576133056132dd565b5060010190565b600181811c9082168061332057607f821691505b60208210810361334057634e487b7160e01b600052602260045260246000fd5b50919050565b602081016108ae8284612f05565b60008151613366818560208601612d77565b9290920192915050565b683d913730b6b2911d1160b91b81528551600090613395816009850160208b01612d77565b6201016960ed1b60099184019182015286516133b881600c840160208b01612d77565b61088b60f21b600c929091019182018190527f226465736372697074696f6e223a22496e63656e74696669204e465420666f72600e830152600160fd1b602e830152865161340d81602f850160208b01612d77565b602f9201918201526134d46134c66134b86134b261348961347a61347461344b603189016d2261747472696275746573223a5b60901b8152600e0190565b7f7b2274726169745f74797065223a2254797065222c2276616c7565223a2200008152601e0190565b8b613354565b62089f4b60ea1b815260030190565b7f7b2274726169745f74797065223a2243686f7265222c2276616c7565223a22008152601f0190565b87613354565b61227d60f01b815260020190565b615d7d60f01b815260020190565b98975050505050505050565b7f646174613a6170706c69636174696f6e2f6a736f6e3b6261736536342c00000081526000825161351881601d850160208701612d77565b91909101601d0192915050565b80820281158282048414176108ae576108ae6132dd565b808201808211156108ae576108ae6132dd565b6080810161355d8287612f05565b60208201949094529115156040830152606090910152919050565b604081016135868285612f19565b6124a06020830184612f05565b606081016135a18286612f05565b602082019390935260400152919050565b6001600160a01b03858116825284166020820152604081018390526080606082018190526000906135e590830184612d9b565b9695505050505050565b60006020828403121561360157600080fd5b81516124a081612cdc565b634e487b7160e01b600052601260045260246000fd5b6000826136315761363161360c565b500490565b6000826136455761364561360c565b50069056fe4142434445464748494a4b4c4d4e4f505152535455565758595a6162636465666768696a6b6c6d6e6f707172737475767778797a303132333435363738392b2fa2646970667358221220010d22baa4cfa1bf54714b9bcc8e8a985afdbda0e48536c8d49d321c5868a84264736f6c6343000814003354616b652074686520646f6720666f7220612032302d6d696e7574652077616c6b4d6f772074686520656e74697265206c61776e20616e6420636c65616e20757020636c697070696e67735761736820616e642064727920616c6c2064697368657320696e207468652073696e6b54616b652074686520676172626167652062696e7320746f20746865206375726220666f72207069636b7570",
  "devdoc": {
    "author": "Your Name - XDC Vibe Bootcamp",
    "errors": {
      "ERC721IncorrectOwner(address,uint256,address)": [
        {
          "details": "Indicates an error related to the ownership over a particular token. Used in transfers.",
          "params": {
            "owner": "Address of the current owner of a token.",
            "sender": "Address whose tokens are being transferred.",
            "tokenId": "Identifier number of a token."
          }
        }
      ],
      "ERC721InsufficientApproval(address,uint256)": [
        {
          "details": "Indicates a failure with the `operator`s approval. Used in transfers.",
          "params": {
            "operator": "Address that may be allowed to operate on tokens without being their owner.",
            "tokenId": "Identifier number of a token."
          }
        }
      ],
      "ERC721InvalidApprover(address)": [
        {
          "details": "Indicates a failure with the `approver` of a token to be approved. Used in approvals.",
          "params": {
            "approver": "Address initiating an approval operation."
          }
        }
      ],
      "ERC721InvalidOperator(address)": [
        {
          "details": "Indicates a failure with the `operator` to be approved. Used in approvals.",
          "params": {
            "operator": "Address that may be allowed to operate on tokens without being their owner."
          }
        }
      ],
      "ERC721InvalidOwner(address)": [
        {
          "details": "Indicates that an address can't be an owner. For example, `address(0)` is a forbidden owner in ERC-20. Used in balance queries.",
          "params": {
            "owner": "Address of the current owner of a token."
          }
        }
      ],
      "ERC721InvalidReceiver(address)": [
        {
          "details": "Indicates a failure with the token `receiver`. Used in transfers.",
          "params": {
            "receiver": "Address to which tokens are being transferred."
          }
        }
      ],
      "ERC721InvalidSender(address)": [
        {
          "details": "Indicates a failure with the token `sender`. Used in transfers.",
          "params": {
            "sender": "Address whose tokens are being transferred."
          }
        }
      ],
      "ERC721NonexistentToken(uint256)": [
        {
          "details": "Indicates a `tokenId` whose `owner` is the zero address.",
          "params": {
            "tokenId": "Identifier number of a token."
          }
        }
      ],
      "OwnableInvalidOwner(address)": [
        {
          "details": "The owner is not a valid owner account. (eg. `address(0)`)"
        }
      ],
      "OwnableUnauthorizedAccount(address)": [
        {
          "details": "The caller account is not authorized to perform an operation."
        }
      ]
    },
    "events": {
      "Approval(address,address,uint256)": {
        "details": "Emitted when `owner` enables `approved` to manage the `tokenId` token."
      },
      "ApprovalForAll(address,address,bool)": {
        "details": "Emitted when `owner` enables or disables (`approved`) `operator` to manage all of its assets."
      },
      "Transfer(address,address,uint256)": {
        "details": "Emitted when `tokenId` token is transferred from `from` to `to`."
      }
    },
    "kind": "dev",
    "methods": {
      "approve(address,uint256)": {
        "details": "Gives permission to `to` to transfer `tokenId` token to another account. The approval is cleared when the token is transferred. Only a single account can be approved at a time, so approving the zero address clears previous approvals. Requirements: - The caller must own the token or be an approved operator. - `tokenId` must exist. Emits an {Approval} event."
      },
      "balanceOf(address)": {
        "details": "Returns the number of tokens in ``owner``'s account."
      },
      "getApproved(uint256)": {
        "details": "Returns the account approved for `tokenId` token. Requirements: - `tokenId` must exist."
      },
      "isApprovedForAll(address,address)": {
        "details": "Returns if the `operator` is allowed to manage all of the assets of `owner`. See {setApprovalForAll}"
      },
      "name()": {
        "details": "Returns the token collection name."
      },
      "owner()": {
        "details": "Returns the address of the current owner."
      },
      "ownerOf(uint256)": {
        "details": "Returns the owner of the `tokenId` token. Requirements: - `tokenId` must exist."
      },
      "renounceOwnership()": {
        "details": "Leaves the contract without owner. It will not be possible to call `onlyOwner` functions. Can only be called by the current owner. NOTE: Renouncing ownership will leave the contract without an owner, thereby disabling any functionality that is only available to the owner."
      },
      "safeTransferFrom(address,address,uint256)": {
        "details": "Safely transfers `tokenId` token from `from` to `to`, checking first that contract recipients are aware of the ERC-721 protocol to prevent tokens from being forever locked. Requirements: - `from` cannot be the zero address. - `to` cannot be the zero address. - `tokenId` token must exist and be owned by `from`. - If the caller is not `from`, it must have been allowed to move this token by either {approve} or   {setApprovalForAll}. - If `to` refers to a smart contract, it must implement {IERC721Receiver-onERC721Received}, which is called upon   a safe transfer. Emits a {Transfer} event."
      },
      "safeTransferFrom(address,address,uint256,bytes)": {
        "details": "Safely transfers `tokenId` token from `from` to `to`. Requirements: - `from` cannot be the zero address. - `to` cannot be the zero address. - `tokenId` token must exist and be owned by `from`. - If the caller is not `from`, it must be approved to move this token by either {approve} or {setApprovalForAll}. - If `to` refers to a smart contract, it must implement {IERC721Receiver-onERC721Received}, which is called upon   a safe transfer. Emits a {Transfer} event."
      },
      "setApprovalForAll(address,bool)": {
        "details": "Approve or remove `operator` as an operator for the caller. Operators can call {transferFrom} or {safeTransferFrom} for any token owned by the caller. Requirements: - The `operator` cannot be the address zero. Emits an {ApprovalForAll} event."
      },
      "supportsInterface(bytes4)": {
        "details": "Returns true if this contract implements the interface defined by `interfaceId`. See the corresponding https://eips.ethereum.org/EIPS/eip-165#how-interfaces-are-identified[ERC section] to learn more about how these ids are created. This function call must use less than 30 000 gas."
      },
      "symbol()": {
        "details": "Returns the token collection symbol."
      },
      "tokenURI(uint256)": {
        "details": "Returns the Uniform Resource Identifier (URI) for `tokenId` token."
      },
      "transferFrom(address,address,uint256)": {
        "details": "Transfers `tokenId` token from `from` to `to`. WARNING: Note that the caller is responsible to confirm that the recipient is capable of receiving ERC-721 or else they may be permanently lost. Usage of {safeTransferFrom} prevents loss, though the caller must understand this adds an external call which potentially creates a reentrancy vulnerability. Requirements: - `from` cannot be the zero address. - `to` cannot be the zero address. - `tokenId` token must be owned by `from`. - If the caller is not `from`, it must be approved to move this token by either {approve} or {setApprovalForAll}. Emits a {Transfer} event."
      },
      "transferOwnership(address)": {
        "details": "Transfers ownership of the contract to a new account (`newOwner`). Can only be called by the current owner."
      }
    },
    "version": 1
  },
  "userdoc": {
    "kind": "user",
    "methods": {
      "burnForReward(uint8)": {
        "notice": "Burn NFT for reward with lottery bonus"
      },
      "completeChore(uint8)": {
        "notice": "Mark chore as completed (self-reported)"
      },
      "selectChore(uint8)": {
        "notice": "Select a chore and mint NFT - simplified approach"
      }
    },
    "notice": "Incentifi - Simplified Gamified Chore dApp for XDC Network Select chores, mint NFTs, burn for rewards with lottery bonus",
    "version": 1
  },
  "storageLayout": {
    "storage": [
      {
        "astId": 317,
        "contract": "contracts/YourContract.sol:YourContract",
        "label": "_name",
        "offset": 0,
        "slot": "0",
        "type": "t_string_storage"
      },
      {
        "astId": 319,
        "contract": "contracts/YourContract.sol:YourContract",
        "label": "_symbol",
        "offset": 0,
        "slot": "1",
        "type": "t_string_storage"
      },
      {
        "astId": 323,
        "contract": "contracts/YourContract.sol:YourContract",
        "label": "_owners",
        "offset": 0,
        "slot": "2",
        "type": "t_mapping(t_uint256,t_address)"
      },
      {
        "astId": 327,
        "contract": "contracts/YourContract.sol:YourContract",
        "label": "_balances",
        "offset": 0,
        "slot": "3",
        "type": "t_mapping(t_address,t_uint256)"
      },
      {
        "astId": 331,
        "contract": "contracts/YourContract.sol:YourContract",
        "label": "_tokenApprovals",
        "offset": 0,
        "slot": "4",
        "type": "t_mapping(t_uint256,t_address)"
      },
      {
        "astId": 337,
        "contract": "contracts/YourContract.sol:YourContract",
        "label": "_operatorApprovals",
        "offset": 0,
        "slot": "5",
        "type": "t_mapping(t_address,t_mapping(t_address,t_bool))"
      },
      {
        "astId": 8,
        "contract": "contracts/YourContract.sol:YourContract",
        "label": "_owner",
        "offset": 0,
        "slot": "6",
        "type": "t_address"
      },
      {
        "astId": 6589,
        "contract": "contracts/YourContract.sol:YourContract",
        "label": "_nextTokenId",
        "offset": 0,
        "slot": "7",
        "type": "t_uint256"
      },
      {
        "astId": 6595,
        "contract": "contracts/YourContract.sol:YourContract",
        "label": "chores",
        "offset": 0,
        "slot": "8",
        "type": "t_mapping(t_enum(ChoreType)6551,t_struct(Chore)6563_storage)"
      },
      {
        "astId": 6603,
        "contract": "contracts/YourContract.sol:YourContract",
        "label": "userChores",
        "offset": 0,
        "slot": "9",
        "type": "t_mapping(t_address,t_mapping(t_enum(ChoreType)6551,t_struct(UserChore)6575_storage))"
      },
      {
        "astId": 6608,
        "contract": "contracts/YourContract.sol:YourContract",
        "label": "userNFTs",
        "offset": 0,
        "slot": "10",
        "type": "t_mapping(t_address,t_array(t_uint256)dyn_storage)"
      },
      {
        "astId": 6613,
        "contract": "contracts/YourContract.sol:YourContract",
        "label": "nftMetadata",
        "offset": 0,
        "slot": "11",
        "type": "t_mapping(t_uint256,t_struct(NFTMetadata)6586_storage)"
      },
      {
        "astId": 6617,
        "contract": "contracts/YourContract.sol:YourContract",
        "label": "userAchievementCount",
        "offset": 0,
        "slot": "12",
        "type": "t_mapping(t_address,t_uint256)"
      },
      {
        "astId": 6621,
        "contract": "contracts/YourContract.sol:YourContract",
        "label": "userTotalRewards",
        "offset": 0,
        "slot": "13",
        "type": "t_mapping(t_address,t_uint256)"
      },
      {
        "astId": 6628,
        "contract": "contracts/YourContract.sol:YourContract",
        "label": "userChoreCompletionCount",
        "offset": 0,
        "slot": "14",
        "type": "t_mapping(t_address,t_mapping(t_enum(ChoreType)6551,t_uint256))"
      },
      {
        "astId": 6631,
        "contract": "contracts/YourContract.sol:YourContract",
        "label": "totalChoresCompleted",
        "offset": 0,
        "slot": "15",
        "type": "t_uint256"
      },
      {
        "astId": 6634,
        "contract": "contracts/YourContract.sol:YourContract",
        "label": "totalRewardsPaid",
        "offset": 0,
        "slot": "16",
        "type": "t_uint256"
      },
      {
        "astId": 6637,
        "contract": "contracts/YourContract.sol:YourContract",
        "label": "lotteryChance",
        "offset": 0,
        "slot": "17",
        "type": "t_uint256"
      },
      {
        "astId": 6640,
        "contract": "contracts/YourContract.sol:YourContract",
        "label": "lotteryMultiplier",
        "offset": 0,
        "slot": "18",
        "type": "t_uint256"
      }
    ],
    "types": {
      "t_address": {
        "encoding": "inplace",
        "label": "address",
        "numberOfBytes": "20"
      },
      "t_array(t_uint256)dyn_storage": {
        "base": "t_uint256",
        "encoding": "dynamic_array",
        "label": "uint256[]",
        "numberOfBytes": "32"
      },
      "t_bool": {
        "encoding": "inplace",
        "label": "bool",
        "numberOfBytes": "1"
      },
      "t_enum(ChoreType)6551": {
        "encoding": "inplace",
        "label": "enum YourContract.ChoreType",
        "numberOfBytes": "1"
      },
      "t_enum(NFTType)6554": {
        "encoding": "inplace",
        "label": "enum YourContract.NFTType",
        "numberOfBytes": "1"
      },
      "t_mapping(t_address,t_array(t_uint256)dyn_storage)": {
        "encoding": "mapping",
        "key": "t_address",
        "label": "mapping(address => uint256[])",
        "numberOfBytes": "32",
        "value": "t_array(t_uint256)dyn_storage"
      },
      "t_mapping(t_address,t_bool)": {
        "encoding": "mapping",
        "key": "t_address",
        "label": "mapping(address => bool)",
        "numberOfBytes": "32",
        "value": "t_bool"
      },
      "t_mapping(t_address,t_mapping(t_address,t_bool))": {
        "encoding": "mapping",
        "key": "t_address",
        "label": "mapping(address => mapping(address => bool))",
        "numberOfBytes": "32",
        "value": "t_mapping(t_address,t_bool)"
      },
      "t_mapping(t_address,t_mapping(t_enum(ChoreType)6551,t_struct(UserChore)6575_storage))": {
        "encoding": "mapping",
        "key": "t_address",
        "label": "mapping(address => mapping(enum YourContract.ChoreType => struct YourContract.UserChore))",
        "numberOfBytes": "32",
        "value": "t_mapping(t_enum(ChoreType)6551,t_struct(UserChore)6575_storage)"
      },
      "t_mapping(t_address,t_mapping(t_enum(ChoreType)6551,t_uint256))": {
        "encoding": "mapping",
        "key": "t_address",
        "label": "mapping(address => mapping(enum YourContract.ChoreType => uint256))",
        "numberOfBytes": "32",
        "value": "t_mapping(t_enum(ChoreType)6551,t_uint256)"
      },
      "t_mapping(t_address,t_uint256)": {
        "encoding": "mapping",
        "key": "t_address",
        "label": "mapping(address => uint256)",
        "numberOfBytes": "32",
        "value": "t_uint256"
      },
      "t_mapping(t_enum(ChoreType)6551,t_struct(Chore)6563_storage)": {
        "encoding": "mapping",
        "key": "t_enum(ChoreType)6551",
        "label": "mapping(enum YourContract.ChoreType => struct YourContract.Chore)",
        "numberOfBytes": "32",
        "value": "t_struct(Chore)6563_storage"
      },
      "t_mapping(t_enum(ChoreType)6551,t_struct(UserChore)6575_storage)": {
        "encoding": "mapping",
        "key": "t_enum(ChoreType)6551",
        "label": "mapping(enum YourContract.ChoreType => struct YourContract.UserChore)",
        "numberOfBytes": "32",
        "value": "t_struct(UserChore)6575_storage"
      },
      "t_mapping(t_enum(ChoreType)6551,t_uint256)": {
        "encoding": "mapping",
        "key": "t_enum(ChoreType)6551",
        "label": "mapping(enum YourContract.ChoreType => uint256)",
        "numberOfBytes": "32",
        "value": "t_uint256"
      },
      "t_mapping(t_uint256,t_address)": {
        "encoding": "mapping",
        "key": "t_uint256",
        "label": "mapping(uint256 => address)",
        "numberOfBytes": "32",
        "value": "t_address"
      },
      "t_mapping(t_uint256,t_struct(NFTMetadata)6586_storage)": {
        "encoding": "mapping",
        "key": "t_uint256",
        "label": "mapping(uint256 => struct YourContract.NFTMetadata)",
        "numberOfBytes": "32",
        "value": "t_struct(NFTMetadata)6586_storage"
      },
      "t_string_storage": {
        "encoding": "bytes",
        "label": "string",
        "numberOfBytes": "32"
      },
      "t_struct(Chore)6563_storage": {
        "encoding": "inplace",
        "label": "struct YourContract.Chore",
        "members": [
          {
            "astId": 6556,
            "contract": "contracts/YourContract.sol:YourContract",
            "label": "name",
            "offset": 0,
            "slot": "0",
            "type": "t_string_storage"
          },
          {
            "astId": 6558,
            "contract": "contracts/YourContract.sol:YourContract",
            "label": "description",
            "offset": 0,
            "slot": "1",
            "type": "t_string_storage"
          },
          {
            "astId": 6560,
            "contract": "contracts/YourContract.sol:YourContract",
            "label": "reward",
            "offset": 0,
            "slot": "2",
            "type": "t_uint256"
          },
          {
            "astId": 6562,
            "contract": "contracts/YourContract.sol:YourContract",
            "label": "timeLimit",
            "offset": 0,
            "slot": "3",
            "type": "t_uint256"
          }
        ],
        "numberOfBytes": "128"
      },
      "t_struct(NFTMetadata)6586_storage": {
        "encoding": "inplace",
        "label": "struct YourContract.NFTMetadata",
        "members": [
          {
            "astId": 6578,
            "contract": "contracts/YourContract.sol:YourContract",
            "label": "choreType",
            "offset": 0,
            "slot": "0",
            "type": "t_enum(ChoreType)6551"
          },
          {
            "astId": 6581,
            "contract": "contracts/YourContract.sol:YourContract",
            "label": "nftType",
            "offset": 1,
            "slot": "0",
            "type": "t_enum(NFTType)6554"
          },
          {
            "astId": 6583,
            "contract": "contracts/YourContract.sol:YourContract",
            "label": "mintedAt",
            "offset": 0,
            "slot": "1",
            "type": "t_uint256"
          },
          {
            "astId": 6585,
            "contract": "contracts/YourContract.sol:YourContract",
            "label": "isActive",
            "offset": 0,
            "slot": "2",
            "type": "t_bool"
          }
        ],
        "numberOfBytes": "96"
      },
      "t_struct(UserChore)6575_storage": {
        "encoding": "inplace",
        "label": "struct YourContract.UserChore",
        "members": [
          {
            "astId": 6566,
            "contract": "contracts/YourContract.sol:YourContract",
            "label": "choreType",
            "offset": 0,
            "slot": "0",
            "type": "t_enum(ChoreType)6551"
          },
          {
            "astId": 6568,
            "contract": "contracts/YourContract.sol:YourContract",
            "label": "startTime",
            "offset": 0,
            "slot": "1",
            "type": "t_uint256"
          },
          {
            "astId": 6570,
            "contract": "contracts/YourContract.sol:YourContract",
            "label": "deadline",
            "offset": 0,
            "slot": "2",
            "type": "t_uint256"
          },
          {
            "astId": 6572,
            "contract": "contracts/YourContract.sol:YourContract",
            "label": "completed",
            "offset": 0,
            "slot": "3",
            "type": "t_bool"
          },
          {
            "astId": 6574,
            "contract": "contracts/YourContract.sol:YourContract",
            "label": "redeemed",
            "offset": 1,
            "slot": "3",
            "type": "t_bool"
          }
        ],
        "numberOfBytes": "128"
      },
      "t_uint256": {
        "encoding": "inplace",
        "label": "uint256",
        "numberOfBytes": "32"
      }
    }
  }
}